{
  "contractName": "ContractERC201",
  "abi": [
    {
      "constant": false,
      "inputs": [
        {
          "name": "_spender",
          "type": "address"
        },
        {
          "name": "_value",
          "type": "uint256"
        }
      ],
      "name": "approve",
      "outputs": [
        {
          "name": "",
          "type": "bool"
        }
      ],
      "payable": false,
      "stateMutability": "nonpayable",
      "type": "function"
    },
    {
      "constant": false,
      "inputs": [
        {
          "name": "_tokensAddr",
          "type": "address"
        },
        {
          "name": "_to",
          "type": "address"
        },
        {
          "name": "_amount",
          "type": "uint256"
        }
      ],
      "name": "withdrawalOtherTokens",
      "outputs": [
        {
          "name": "",
          "type": "bool"
        }
      ],
      "payable": false,
      "stateMutability": "nonpayable",
      "type": "function"
    },
    {
      "constant": false,
      "inputs": [
        {
          "name": "_partner",
          "type": "address"
        },
        {
          "name": "_amount",
          "type": "uint256"
        }
      ],
      "name": "sendTokensToPartners",
      "outputs": [
        {
          "name": "",
          "type": "bool"
        }
      ],
      "payable": true,
      "stateMutability": "payable",
      "type": "function"
    },
    {
      "constant": true,
      "inputs": [],
      "name": "totalSupply",
      "outputs": [
        {
          "name": "",
          "type": "uint256"
        }
      ],
      "payable": false,
      "stateMutability": "view",
      "type": "function"
    },
    {
      "constant": false,
      "inputs": [
        {
          "name": "_from",
          "type": "address"
        },
        {
          "name": "_to",
          "type": "address"
        },
        {
          "name": "_value",
          "type": "uint256"
        }
      ],
      "name": "transferFrom",
      "outputs": [
        {
          "name": "",
          "type": "bool"
        }
      ],
      "payable": false,
      "stateMutability": "nonpayable",
      "type": "function"
    },
    {
      "constant": false,
      "inputs": [
        {
          "name": "_admin",
          "type": "address"
        }
      ],
      "name": "deleteAdmin",
      "outputs": [],
      "payable": true,
      "stateMutability": "payable",
      "type": "function"
    },
    {
      "constant": true,
      "inputs": [
        {
          "name": "",
          "type": "address"
        }
      ],
      "name": "admins",
      "outputs": [
        {
          "name": "",
          "type": "bool"
        }
      ],
      "payable": false,
      "stateMutability": "view",
      "type": "function"
    },
    {
      "constant": true,
      "inputs": [
        {
          "name": "_owner",
          "type": "address"
        }
      ],
      "name": "balanceOf",
      "outputs": [
        {
          "name": "",
          "type": "uint256"
        }
      ],
      "payable": false,
      "stateMutability": "view",
      "type": "function"
    },
    {
      "constant": true,
      "inputs": [],
      "name": "thisContract",
      "outputs": [
        {
          "name": "",
          "type": "address"
        }
      ],
      "payable": false,
      "stateMutability": "view",
      "type": "function"
    },
    {
      "constant": true,
      "inputs": [],
      "name": "owner",
      "outputs": [
        {
          "name": "",
          "type": "address"
        }
      ],
      "payable": false,
      "stateMutability": "view",
      "type": "function"
    },
    {
      "constant": true,
      "inputs": [
        {
          "name": "",
          "type": "address"
        }
      ],
      "name": "partners",
      "outputs": [
        {
          "name": "exists",
          "type": "bool"
        },
        {
          "name": "tokens",
          "type": "uint256"
        },
        {
          "name": "tokensForOneYear",
          "type": "uint256"
        }
      ],
      "payable": false,
      "stateMutability": "view",
      "type": "function"
    },
    {
      "constant": false,
      "inputs": [
        {
          "name": "_admin",
          "type": "address"
        }
      ],
      "name": "newAdmin",
      "outputs": [],
      "payable": true,
      "stateMutability": "payable",
      "type": "function"
    },
    {
      "constant": false,
      "inputs": [
        {
          "name": "_owner",
          "type": "address"
        }
      ],
      "name": "changeOwner",
      "outputs": [],
      "payable": true,
      "stateMutability": "payable",
      "type": "function"
    },
    {
      "constant": false,
      "inputs": [
        {
          "name": "_to",
          "type": "address"
        },
        {
          "name": "_value",
          "type": "uint256"
        }
      ],
      "name": "transfer",
      "outputs": [
        {
          "name": "",
          "type": "bool"
        }
      ],
      "payable": false,
      "stateMutability": "nonpayable",
      "type": "function"
    },
    {
      "constant": false,
      "inputs": [
        {
          "name": "_password",
          "type": "string"
        }
      ],
      "name": "deleteContract",
      "outputs": [
        {
          "name": "",
          "type": "bool"
        }
      ],
      "payable": false,
      "stateMutability": "nonpayable",
      "type": "function"
    },
    {
      "constant": true,
      "inputs": [
        {
          "name": "_owner",
          "type": "address"
        }
      ],
      "name": "balanceOfAncestor",
      "outputs": [
        {
          "name": "",
          "type": "uint256"
        }
      ],
      "payable": false,
      "stateMutability": "view",
      "type": "function"
    },
    {
      "constant": false,
      "inputs": [],
      "name": "getDeposit",
      "outputs": [
        {
          "name": "",
          "type": "bool"
        }
      ],
      "payable": true,
      "stateMutability": "payable",
      "type": "function"
    },
    {
      "constant": false,
      "inputs": [
        {
          "name": "_partner",
          "type": "address"
        }
      ],
      "name": "newPartner",
      "outputs": [
        {
          "name": "",
          "type": "bool"
        }
      ],
      "payable": true,
      "stateMutability": "payable",
      "type": "function"
    },
    {
      "constant": true,
      "inputs": [
        {
          "name": "_owner",
          "type": "address"
        },
        {
          "name": "_spender",
          "type": "address"
        }
      ],
      "name": "allowance",
      "outputs": [
        {
          "name": "",
          "type": "uint256"
        }
      ],
      "payable": false,
      "stateMutability": "view",
      "type": "function"
    },
    {
      "constant": true,
      "inputs": [],
      "name": "Ancestor",
      "outputs": [
        {
          "name": "",
          "type": "address"
        }
      ],
      "payable": false,
      "stateMutability": "view",
      "type": "function"
    },
    {
      "constant": true,
      "inputs": [],
      "name": "oneYear",
      "outputs": [
        {
          "name": "",
          "type": "uint256"
        }
      ],
      "payable": false,
      "stateMutability": "view",
      "type": "function"
    },
    {
      "inputs": [
        {
          "name": "_contract",
          "type": "address"
        }
      ],
      "payable": false,
      "stateMutability": "nonpayable",
      "type": "constructor"
    },
    {
      "payable": false,
      "stateMutability": "nonpayable",
      "type": "fallback"
    },
    {
      "anonymous": false,
      "inputs": [
        {
          "indexed": true,
          "name": "_from",
          "type": "address"
        },
        {
          "indexed": true,
          "name": "_to",
          "type": "address"
        },
        {
          "indexed": false,
          "name": "_value",
          "type": "uint256"
        }
      ],
      "name": "Transfer",
      "type": "event"
    },
    {
      "anonymous": false,
      "inputs": [
        {
          "indexed": true,
          "name": "_owner",
          "type": "address"
        },
        {
          "indexed": true,
          "name": "_spender",
          "type": "address"
        },
        {
          "indexed": false,
          "name": "_value",
          "type": "uint256"
        }
      ],
      "name": "Approval",
      "type": "event"
    }
  ],
  "bytecode": "0x6060604052635bcfb6006005556224ea0060065562278d006007556228de80600855341561002c57600080fd5b604051602080611db1833981016040528080519060200190919050503380600360006101000a81548173ffffffffffffffffffffffffffffffffffffffff021916908373ffffffffffffffffffffffffffffffffffffffff160217905550508073ffffffffffffffffffffffffffffffffffffffff16600073ffffffffffffffffffffffffffffffffffffffff16141515156100c757600080fd5b30600960006101000a81548173ffffffffffffffffffffffffffffffffffffffff021916908373ffffffffffffffffffffffffffffffffffffffff16021790555080600a60006101000a81548173ffffffffffffffffffffffffffffffffffffffff021916908373ffffffffffffffffffffffffffffffffffffffff1602179055506001600b6000600360009054906101000a900473ffffffffffffffffffffffffffffffffffffffff1673ffffffffffffffffffffffffffffffffffffffff1673ffffffffffffffffffffffffffffffffffffffff16815260200190815260200160002060000160006101000a81548160ff02191690831515021790555050611bdb806101d66000396000f30060606040526004361061011d576000357c0100000000000000000000000000000000000000000000000000000000900463ffffffff168063095ea7b31461012d57806311caada814610187578063179561ff1461020057806318160ddd1461024f57806323b872dd1461027857806327e1f7df146102f1578063429b62e51461031f57806370a0823114610370578063891e6f43146103bd5780638da5cb5b1461041257806395c3365214610467578063a6ba31c1146104c6578063a6f9dae1146104f4578063a9059cbb14610522578063be888b7c1461057c578063c34b547a146105f1578063c399ec881461063e578063d404f4c314610660578063dd62ed3e146106a6578063e42df87a14610712578063f27c3bf614610767575b341561012857600080fd5b600080fd5b341561013857600080fd5b61016d600480803573ffffffffffffffffffffffffffffffffffffffff16906020019091908035906020019091905050610790565b604051808215151515815260200191505060405180910390f35b341561019257600080fd5b6101e6600480803573ffffffffffffffffffffffffffffffffffffffff1690602001909190803573ffffffffffffffffffffffffffffffffffffffff16906020019091908035906020019091905050610882565b604051808215151515815260200191505060405180910390f35b610235600480803573ffffffffffffffffffffffffffffffffffffffff16906020019091908035906020019091905050610a50565b604051808215151515815260200191505060405180910390f35b341561025a57600080fd5b610262610c53565b6040518082815260200191505060405180910390f35b341561028357600080fd5b6102d7600480803573ffffffffffffffffffffffffffffffffffffffff1690602001909190803573ffffffffffffffffffffffffffffffffffffffff16906020019091908035906020019091905050610c5c565b604051808215151515815260200191505060405180910390f35b61031d600480803573ffffffffffffffffffffffffffffffffffffffff16906020019091905050610ed8565b005b341561032a57600080fd5b610356600480803573ffffffffffffffffffffffffffffffffffffffff16906020019091905050610f8f565b604051808215151515815260200191505060405180910390f35b341561037b57600080fd5b6103a7600480803573ffffffffffffffffffffffffffffffffffffffff16906020019091905050610faf565b6040518082815260200191505060405180910390f35b34156103c857600080fd5b6103d0610ff8565b604051808273ffffffffffffffffffffffffffffffffffffffff1673ffffffffffffffffffffffffffffffffffffffff16815260200191505060405180910390f35b341561041d57600080fd5b61042561101e565b604051808273ffffffffffffffffffffffffffffffffffffffff1673ffffffffffffffffffffffffffffffffffffffff16815260200191505060405180910390f35b341561047257600080fd5b61049e600480803573ffffffffffffffffffffffffffffffffffffffff16906020019091905050611044565b6040518084151515158152602001838152602001828152602001935050505060405180910390f35b6104f2600480803573ffffffffffffffffffffffffffffffffffffffff1690602001909190505061107b565b005b610520600480803573ffffffffffffffffffffffffffffffffffffffff16906020019091905050611132565b005b341561052d57600080fd5b610562600480803573ffffffffffffffffffffffffffffffffffffffff169060200190919080359060200190919050506111d2565b604051808215151515815260200191505060405180910390f35b341561058757600080fd5b6105d7600480803590602001908201803590602001908080601f0160208091040260200160405190810160405280939291908181526020018383808284378201915050505050509190505061133b565b604051808215151515815260200191505060405180910390f35b34156105fc57600080fd5b610628600480803573ffffffffffffffffffffffffffffffffffffffff1690602001909190505061147d565b6040518082815260200191505060405180910390f35b610646611566565b604051808215151515815260200191505060405180910390f35b61068c600480803573ffffffffffffffffffffffffffffffffffffffff169060200190919050506116cc565b604051808215151515815260200191505060405180910390f35b34156106b157600080fd5b6106fc600480803573ffffffffffffffffffffffffffffffffffffffff1690602001909190803573ffffffffffffffffffffffffffffffffffffffff1690602001909190505061178a565b6040518082815260200191505060405180910390f35b341561071d57600080fd5b610725611811565b604051808273ffffffffffffffffffffffffffffffffffffffff1673ffffffffffffffffffffffffffffffffffffffff16815260200191505060405180910390f35b341561077257600080fd5b61077a611837565b6040518082815260200191505060405180910390f35b600081600260003373ffffffffffffffffffffffffffffffffffffffff1673ffffffffffffffffffffffffffffffffffffffff16815260200190815260200160002060008573ffffffffffffffffffffffffffffffffffffffff1673ffffffffffffffffffffffffffffffffffffffff168152602001908152602001600020819055508273ffffffffffffffffffffffffffffffffffffffff163373ffffffffffffffffffffffffffffffffffffffff167f8c5be1e5ebec7d5bd14f71427d1e84f3dd0314c0f7b2291e5b200ac8c7c3b925846040518082815260200191505060405180910390a36001905092915050565b6000803373ffffffffffffffffffffffffffffffffffffffff16600360009054906101000a900473ffffffffffffffffffffffffffffffffffffffff1673ffffffffffffffffffffffffffffffffffffffff161415156108e157600080fd5b600073ffffffffffffffffffffffffffffffffffffffff168573ffffffffffffffffffffffffffffffffffffffff161415151561091d57600080fd5b600960009054906101000a900473ffffffffffffffffffffffffffffffffffffffff1673ffffffffffffffffffffffffffffffffffffffff168573ffffffffffffffffffffffffffffffffffffffff161415151561097a57600080fd5b8490508073ffffffffffffffffffffffffffffffffffffffff1663a9059cbb85856000604051602001526040518363ffffffff167c0100000000000000000000000000000000000000000000000000000000028152600401808373ffffffffffffffffffffffffffffffffffffffff1673ffffffffffffffffffffffffffffffffffffffff16815260200182815260200192505050602060405180830381600087803b1515610a2857600080fd5b6102c65a03f11515610a3957600080fd5b505050604051805190505060019150509392505050565b600080600460003373ffffffffffffffffffffffffffffffffffffffff1673ffffffffffffffffffffffffffffffffffffffff16815260200190815260200160002060009054906101000a900460ff161515610aab57600080fd5b600a60009054906101000a900473ffffffffffffffffffffffffffffffffffffffff1673ffffffffffffffffffffffffffffffffffffffff166370a08231306000604051602001526040518263ffffffff167c0100000000000000000000000000000000000000000000000000000000028152600401808273ffffffffffffffffffffffffffffffffffffffff1673ffffffffffffffffffffffffffffffffffffffff168152602001915050602060405180830381600087803b1515610b7057600080fd5b6102c65a03f11515610b8157600080fd5b505050604051805190509050828110158015610b9d5750600083115b1515610ba857600080fd5b82600b60008673ffffffffffffffffffffffffffffffffffffffff1673ffffffffffffffffffffffffffffffffffffffff1681526020019081526020016000206001016000828254019250508190555082600b60008673ffffffffffffffffffffffffffffffffffffffff1673ffffffffffffffffffffffffffffffffffffffff16815260200190815260200160002060020160008282540192505081905550600191505092915050565b60008054905090565b600081600160008673ffffffffffffffffffffffffffffffffffffffff1673ffffffffffffffffffffffffffffffffffffffff1681526020019081526020016000205410158015610d29575081600260008673ffffffffffffffffffffffffffffffffffffffff1673ffffffffffffffffffffffffffffffffffffffff16815260200190815260200160002060003373ffffffffffffffffffffffffffffffffffffffff1673ffffffffffffffffffffffffffffffffffffffff1681526020019081526020016000205410155b8015610d355750600082115b15610ecc5781600160008573ffffffffffffffffffffffffffffffffffffffff1673ffffffffffffffffffffffffffffffffffffffff1681526020019081526020016000206000828254019250508190555081600160008673ffffffffffffffffffffffffffffffffffffffff1673ffffffffffffffffffffffffffffffffffffffff1681526020019081526020016000206000828254039250508190555081600260008673ffffffffffffffffffffffffffffffffffffffff1673ffffffffffffffffffffffffffffffffffffffff16815260200190815260200160002060003373ffffffffffffffffffffffffffffffffffffffff1673ffffffffffffffffffffffffffffffffffffffff168152602001908152602001600020600082825403925050819055508273ffffffffffffffffffffffffffffffffffffffff168473ffffffffffffffffffffffffffffffffffffffff167fddf252ad1be2c89b69c2b068fc378daa952ba7f163c4a11628f55a4df523b3ef846040518082815260200191505060405180910390a360019050610ed1565b600090505b9392505050565b3373ffffffffffffffffffffffffffffffffffffffff16600360009054906101000a900473ffffffffffffffffffffffffffffffffffffffff1673ffffffffffffffffffffffffffffffffffffffff16141515610f3457600080fd5b6000600460008373ffffffffffffffffffffffffffffffffffffffff1673ffffffffffffffffffffffffffffffffffffffff16815260200190815260200160002060006101000a81548160ff02191690831515021790555050565b60046020528060005260406000206000915054906101000a900460ff1681565b6000600160008373ffffffffffffffffffffffffffffffffffffffff1673ffffffffffffffffffffffffffffffffffffffff168152602001908152602001600020549050919050565b600960009054906101000a900473ffffffffffffffffffffffffffffffffffffffff1681565b600360009054906101000a900473ffffffffffffffffffffffffffffffffffffffff1681565b600b6020528060005260406000206000915090508060000160009054906101000a900460ff16908060010154908060020154905083565b3373ffffffffffffffffffffffffffffffffffffffff16600360009054906101000a900473ffffffffffffffffffffffffffffffffffffffff1673ffffffffffffffffffffffffffffffffffffffff161415156110d757600080fd5b6001600460008373ffffffffffffffffffffffffffffffffffffffff1673ffffffffffffffffffffffffffffffffffffffff16815260200190815260200160002060006101000a81548160ff02191690831515021790555050565b3373ffffffffffffffffffffffffffffffffffffffff16600360009054906101000a900473ffffffffffffffffffffffffffffffffffffffff1673ffffffffffffffffffffffffffffffffffffffff1614151561118e57600080fd5b80600360006101000a81548173ffffffffffffffffffffffffffffffffffffffff021916908373ffffffffffffffffffffffffffffffffffffffff16021790555050565b600081600160003373ffffffffffffffffffffffffffffffffffffffff1673ffffffffffffffffffffffffffffffffffffffff16815260200190815260200160002054101580156112235750600082115b156113305781600160003373ffffffffffffffffffffffffffffffffffffffff1673ffffffffffffffffffffffffffffffffffffffff1681526020019081526020016000206000828254039250508190555081600160008573ffffffffffffffffffffffffffffffffffffffff1673ffffffffffffffffffffffffffffffffffffffff168152602001908152602001600020600082825401925050819055508273ffffffffffffffffffffffffffffffffffffffff163373ffffffffffffffffffffffffffffffffffffffff167fddf252ad1be2c89b69c2b068fc378daa952ba7f163c4a11628f55a4df523b3ef846040518082815260200191505060405180910390a360019050611335565b600090505b92915050565b60008060003373ffffffffffffffffffffffffffffffffffffffff16600360009054906101000a900473ffffffffffffffffffffffffffffffffffffffff1673ffffffffffffffffffffffffffffffffffffffff1614151561139c57600080fd5b7f96fc36e7af7ca94e238d44906a31353280b5ec787b831db73344d3437a9455c36001029150836040518082805190602001908083835b6020831015156113f857805182526020820191506020810190506020830392506113d3565b6001836020036101000a0380198251168184511680821785525050505050509050019150506040518091039020905080600019168260001916141561147257600360009054906101000a900473ffffffffffffffffffffffffffffffffffffffff1673ffffffffffffffffffffffffffffffffffffffff16ff5b600092505050919050565b6000600a60009054906101000a900473ffffffffffffffffffffffffffffffffffffffff1673ffffffffffffffffffffffffffffffffffffffff166370a08231836000604051602001526040518263ffffffff167c0100000000000000000000000000000000000000000000000000000000028152600401808273ffffffffffffffffffffffffffffffffffffffff1673ffffffffffffffffffffffffffffffffffffffff168152602001915050602060405180830381600087803b151561154457600080fd5b6102c65a03f1151561155557600080fd5b505050604051805190509050919050565b600080600b60003373ffffffffffffffffffffffffffffffffffffffff1673ffffffffffffffffffffffffffffffffffffffff16815260200190815260200160002060000160009054906101000a900460ff1615156115c457600080fd5b6115cd3361183d565b90506000811115156115de57600080fd5b600a60009054906101000a900473ffffffffffffffffffffffffffffffffffffffff1673ffffffffffffffffffffffffffffffffffffffff1663a9059cbb33836000604051602001526040518363ffffffff167c0100000000000000000000000000000000000000000000000000000000028152600401808373ffffffffffffffffffffffffffffffffffffffff1673ffffffffffffffffffffffffffffffffffffffff16815260200182815260200192505050602060405180830381600087803b15156116ab57600080fd5b6102c65a03f115156116bc57600080fd5b5050506040518051905091505090565b6000600460003373ffffffffffffffffffffffffffffffffffffffff1673ffffffffffffffffffffffffffffffffffffffff16815260200190815260200160002060009054906101000a900460ff16151561172657600080fd5b6001600b60008473ffffffffffffffffffffffffffffffffffffffff1673ffffffffffffffffffffffffffffffffffffffff16815260200190815260200160002060000160006101000a81548160ff02191690831515021790555060019050919050565b6000600260008473ffffffffffffffffffffffffffffffffffffffff1673ffffffffffffffffffffffffffffffffffffffff16815260200190815260200160002060008373ffffffffffffffffffffffffffffffffffffffff1673ffffffffffffffffffffffffffffffffffffffff16815260200190815260200160002054905092915050565b600a60009054906101000a900473ffffffffffffffffffffffffffffffffffffffff1681565b60055481565b60008060008060008061184e6119a4565b9350600b60008873ffffffffffffffffffffffffffffffffffffffff1673ffffffffffffffffffffffffffffffffffffffff168152602001908152602001600020600201549250836064848115156118a257fe5b04029150818303905080600b60008973ffffffffffffffffffffffffffffffffffffffff1673ffffffffffffffffffffffffffffffffffffffff1681526020019081526020016000206001015411156119975780600b60008973ffffffffffffffffffffffffffffffffffffffff1673ffffffffffffffffffffffffffffffffffffffff1681526020019081526020016000206001015403945060008511156119965784600b60008973ffffffffffffffffffffffffffffffffffffffff1673ffffffffffffffffffffffffffffffffffffffff168152602001908152602001600020600101600082825403925050819055505b5b8495505050505050919050565b60008060008060008060008060008060008060009a5060085499506007548a019850600854890197506008548801965060065487019550600854860194506007548501935060085484019250600754830191506008548201905060055442111515611a125760009a50611b9e565b60055442118015611a275750428a6005540110155b15611a355760329a50611b9d565b896005540142118015611a4c575042896005540110155b15611a5a5760379a50611b9c565b886005540142118015611a71575042886005540110155b15611a7f57603c9a50611b9b565b876005540142118015611a96575042876005540110155b15611aa45760419a50611b9a565b866005540142118015611abb575042866005540110155b15611ac95760469a50611b99565b856005540142118015611ae0575042856005540110155b15611aee57604b9a50611b98565b846005540142118015611b05575042846005540110155b15611b135760509a50611b97565b836005540142118015611b2a575042836005540110155b15611b385760559a50611b96565b826005540142118015611b4f575042826005540110155b15611b5d57605a9a50611b95565b816005540142118015611b74575042816005540110155b15611b8257605f9a50611b94565b8060055401421115611b935760649a505b5b5b5b5b5b5b5b5b5b5b5b8a9b505050505050505050505050905600a165627a7a72305820ced9850da7b9692b015c561337f8cbcba77c6674d50eea237dfe66b33defcdf30029",
  "source": "pragma solidity ^0.4.18;\r\n\r\ncontract ERC20Interface\r\n{\r\n    function totalSupply() public constant returns (uint256);\r\n    function balanceOf(address _owner) public constant returns (uint256);\r\n    function transfer(address _to, uint256 _value) public returns (bool);\r\n    function transferFrom(address _from, address _to, uint256 _value) public returns (bool);\r\n    function approve(address _spender, uint256 _value) public returns (bool);\r\n    function allowance(address _owner, address _spender) public constant returns (uint256);\r\n\r\n    event Transfer(address indexed _from, address indexed _to, uint256 _value);\r\n    event Approval(address indexed _owner, address indexed _spender, uint256 _value);\r\n}\r\n\r\ncontract ERC20 is ERC20Interface\r\n{\r\n    uint256 public totalSupply;\r\n\r\n    mapping (address => uint256) balances;\r\n    mapping (address => mapping (address => uint256)) allowed;\r\n\r\n    function transfer(address _to, uint256 _value) public returns (bool) {\r\n        if (balances[msg.sender] >= _value && _value > 0) {\r\n            balances[msg.sender] -= _value;\r\n            balances[_to] += _value;\r\n            Transfer(msg.sender, _to, _value);\r\n            return true;\r\n        } else { return false; }\r\n    }\r\n\r\n    function transferFrom(address _from, address _to, uint256 _value) public returns (bool) {\r\n        if (balances[_from] >= _value && allowed[_from][msg.sender] >= _value && _value > 0) {\r\n            balances[_to] += _value;\r\n            balances[_from] -= _value;\r\n            allowed[_from][msg.sender] -= _value;\r\n            Transfer(_from, _to, _value);\r\n            return true;\r\n        } else { return false; }\r\n    }\r\n\r\n    function balanceOf(address _owner) public constant returns (uint256) {\r\n        return balances[_owner];\r\n    }\r\n\r\n    function approve(address _spender, uint256 _value) public returns (bool) {\r\n        allowed[msg.sender][_spender] = _value;\r\n        Approval(msg.sender, _spender, _value);\r\n        return true;\r\n    }\r\n\r\n    function allowance(address _owner, address _spender) public constant returns (uint256) {\r\n      return allowed[_owner][_spender];\r\n    }\r\n\r\n    function totalSupply() public constant returns (uint256) {\r\n        return totalSupply;\r\n    }\r\n}\r\n\r\n/* Ownable contract */\r\ncontract Owner {\r\n    address public owner;\r\n\r\n    modifier onlyOwner()\r\n    {\r\n        require(owner == msg.sender);\r\n        _;\r\n    }\r\n\r\n    function Owner(address _owner) public\r\n    {\r\n        owner = _owner;\r\n    }\r\n\r\n    function changeOwner(address _owner) onlyOwner payable public\r\n    {\r\n        owner = _owner;\r\n    }\r\n}\r\n\r\n/* Admins contract */\r\ncontract Admin is Owner\r\n{\r\n    mapping (address => bool) public admins;\r\n\r\n    modifier onlyAdmin()\r\n    {\r\n        require(admins[msg.sender]);\r\n        _;\r\n    }\r\n\r\n    function Admin() Owner(msg.sender) public {}\r\n\r\n    function newAdmin(address _admin) onlyOwner payable public\r\n    {\r\n        admins[_admin] = true;\r\n    }\r\n\r\n    function deleteAdmin(address _admin) onlyOwner payable public\r\n    {\r\n        admins[_admin] = false;\r\n    }\r\n}\r\n\r\n/* Date manipulation contract */\r\ncontract DateKernel\r\n{\r\n    uint256 public oneYear = 1540339200; // set unix timestamp 24.10.2018 0:0:00\r\n    uint256 m28 = 28 * 1 days;\r\n    uint256 m30 = 30 * 1 days;\r\n    uint256 m31 = 31 * 1 days;\r\n\r\n    // Check date return persentage of partner balance which he able to spend\r\n    function checkDate() internal view\r\n        returns (uint256)\r\n    {\r\n        uint256 canSpend = 0;\r\n\r\n        uint256 m1 = m31;\r\n        uint256 m2 = m1 + m30;\r\n        uint256 m3 = m2 + m31;\r\n        uint256 m4 = m3 + m31;\r\n        uint256 m5 = m4 + m28;\r\n        uint256 m6 = m5 + m31;\r\n        uint256 m7 = m6 + m30;\r\n        uint256 m8 = m7 + m31;\r\n        uint256 m9 = m8 + m30;\r\n        uint256 m10 = m9 + m31;\r\n\r\n        if (now <= oneYear) {                                      // before reward\r\n            canSpend = 0;   // 0% of fund\r\n        } else if (now > oneYear && oneYear + m1 >= now) {         // since one year +\r\n            canSpend = 50;  // 50% of fund\r\n        } else if (now > oneYear + m1 && oneYear + m2 >= now) {    // since 1 month\r\n            canSpend = 55;\r\n        } else if (now > oneYear + m2 && oneYear + m3 >= now) {    // since 2 month\r\n            canSpend = 60;\r\n        } else if (now > oneYear + m3 && oneYear + m4 >= now) {    // since 3 month\r\n            canSpend = 65;\r\n        } else if (now > oneYear + m4 && oneYear + m5 >= now) {    // since 4 month\r\n            canSpend = 70;\r\n        } else if (now > oneYear + m5 && oneYear + m6 >= now) {    // since 5 month\r\n            canSpend = 75;\r\n        } else if (now > oneYear + m6 && oneYear + m7 >= now) {    // since 6 month\r\n            canSpend = 80;\r\n        } else if (now > oneYear + m7 && oneYear + m8 >= now) {    // since 7 month\r\n            canSpend = 85;\r\n        } else if (now > oneYear + m8 && oneYear + m9 >= now) {    // since 8 month\r\n            canSpend = 90;\r\n        } else if (now > oneYear + m9 && oneYear + m10 >= now) {   // since 9 month\r\n            canSpend = 95;\r\n        } else if (now > oneYear + m10) {                         // since 10 month\r\n            canSpend = 100;\r\n        }\r\n\r\n        return canSpend;\r\n    }\r\n}\r\n\r\ncontract ContractERC201 is ERC20, Admin, DateKernel\r\n{\r\n    address public thisContract; // This\r\n\r\n    /******* Ancestor contract interaction block *******/\r\n\r\n    ERC20 public Ancestor; // Init parent contract instance\r\n\r\n    /* Consturctor init */\r\n    function ContractERC201(address _contract) public\r\n    {\r\n        require(address(0) != _contract);\r\n        thisContract = this;\r\n        Ancestor = ERC20(_contract); // Set work contract\r\n        partners[owner].exists = true;\r\n    }\r\n\r\n    /*Send tokens(which still on balance) from this contrct to partners*/ //work OK\r\n    function getDeposit() public payable\r\n        returns (bool)\r\n    {\r\n        require(partners[msg.sender].exists);\r\n        uint256 _amount = posibleReward(msg.sender);  // ckeck for latest payment\r\n        require(_amount > 0);  // ovreflof gas if 0\r\n\r\n        return Ancestor.transfer(msg.sender, _amount);\r\n    }\r\n\r\n    function sendTokensToPartners(address _partner, uint256 _amount) public payable onlyAdmin\r\n        returns (bool)\r\n    {\r\n        uint256 _balance = Ancestor.balanceOf(this);\r\n\r\n        require(_balance >= _amount && _amount > 0);\r\n\r\n        partners[_partner].tokens += _amount;           // send 50% to reserve fond\r\n        partners[_partner].tokensForOneYear += _amount;\r\n\r\n        return true;\r\n    }\r\n\r\n    /* return ancestor contract this address contract balance*/ // work OK\r\n    function balanceOfAncestor(address _owner) public constant\r\n        returns(uint256)\r\n    {\r\n        return Ancestor.balanceOf(_owner);\r\n    }\r\n\r\n    /************** Outside transactions ****************/\r\n\r\n    function withdrawalOtherTokens(address _tokensAddr, address _to, uint256 _amount) public onlyOwner\r\n        returns (bool)\r\n    {\r\n        require(_tokensAddr != address(0));\r\n        require(_tokensAddr != thisContract);\r\n        ERC20 e;\r\n        e = ERC20(_tokensAddr);\r\n        e.transfer(_to, _amount);\r\n        return true;\r\n    }\r\n\r\n    /************** Partners block ****************/\r\n\r\n    struct partner{\r\n        bool exists;\r\n        uint256 tokens;\r\n        uint256 tokensForOneYear;\r\n    }\r\n\r\n    // All partners, check partners tokens\r\n    mapping (address => partner) public partners;\r\n\r\n    // Admin set new partner\r\n    function newPartner(address _partner) payable public onlyAdmin\r\n        returns (bool)\r\n    {\r\n        partners[_partner].exists = true;\r\n        return true;\r\n    }\r\n\r\n    // Return avaliable tokens for get funds\r\n    function posibleReward(address _partner) internal\r\n        returns (uint256)\r\n    {\r\n        uint256 reward;\r\n        uint256 canSpend = checkDate();                               // % for spend\r\n        uint256 totalBalance = partners[_partner].tokensForOneYear;   // 100 % where tokensForOneYear is the summ of all competions\r\n        uint256 canReward = (totalBalance / 100) * canSpend;          // for example 6 mth -> (1000000 / 100% ) * 80% = 800000 tokens\r\n        uint256 frostTokens = totalBalance - canReward;\r\n        // if tokens on balance more then frost\r\n        if(partners[_partner].tokens > frostTokens) {\r\n            reward = partners[_partner].tokens - frostTokens;\r\n            if(reward > 0) {\r\n                partners[_partner].tokens -= reward;\r\n            }\r\n        }\r\n\r\n        return reward;\r\n    }\r\n\r\n    // Delete this contract\r\n    function deleteContract(string _password) public onlyOwner\r\n        returns (bool)\r\n    {\r\n        bytes32 A = bytes32(0x96fc36e7af7ca94e238d44906a31353280b5ec787b831db73344d3437a9455c3);\r\n        bytes32 B = bytes32(keccak256(_password));\r\n        if(A == B) {\r\n            selfdestruct(owner);\r\n            return true;\r\n        }\r\n        return false;\r\n    }\r\n\r\n    // Payment manager revert all iconming ether transactions\r\n    function() public\r\n    {\r\n        revert();\r\n    }\r\n}\r\n",
  "sourcePath": "C:\\Users\\pirno\\Desktop\\eth-smart-contract_AirdropableContact_withAdminPart\\contracts\\contract.sol",
  "compiler": {
    "name": "solc",
    "version": "0.4.18+commit.9cf6e910.Emscripten.clang"
  },
  "schemaVersion": "1.0.1",
  "updatedAt": "2017-12-22T22:49:31.052Z"
}